S01300004C43445F41546D656761382E7372656378
S113000012C024C023C022C021C020C01FC01EC0F3
S11300101DC01CC01BC01AC019C018C017C016C010
S113002015C014C013C011241FBECFE5D4E0DEBF39
S1130030CDBF10E0A0E6B0E0ECE8F1E002C005902E
S11300400D92A036B107D9F798D09EC0D9CF87B307
S1130050866087BB81B38F6081BB0895982F92958A
S11300609F7092BB98B3926098BB98B3946098BB0E
S113007090E19A95F1F700C098B39B7F98BB82BB3F
S113008088B3846088BB80E18A95F1F700C088B3A7
S11300908B7F88BB90E19A95F1F700C00895982F63
S11300A092959F7092BB98B39D7F98BB98B39460D0
S11300B098BB90E19A95F1F700C098B39B7F98BBE9
S11300C082BB88B3846088BB80E18A95F1F700C065
S11300D088B38B7F88BB90E19A95F1F700C00895AF
S11300E085EA9EE00197F1F700C0000083E0D7DFC6
S11300F081EE94E00197F1F700C0000083E0CFDFC8
S113010091E29A95F1F7000083E0C9DF89EF90E06E
S11301100197F1F700C0000082E0C1DF83EF91E0B6
S11301200197F1F700C0000082E0B9DF89EF90E0A9
S11301300197F1F700C0000088E2B1DF89EF90E099
S11301400197F1F700C000008CE0A9DF89EF90E08F
S11301500197F1F700C0000081E0A1DF83EF91E097
S11301600197F1F700C0000086E099DF89EF90E085
S11301700197F1F700C00000089569DFB1DF88E45A
S10F01806DDF80E090E00895F894FFCF5C
S9030000FC
